{
  "contractName": "Bank",
  "abi": [
    {
      "inputs": [
        {
          "internalType": "address",
          "name": "_admin",
          "type": "address"
        }
      ],
      "stateMutability": "nonpayable",
      "type": "constructor"
    },
    {
      "inputs": [],
      "name": "admin",
      "outputs": [
        {
          "internalType": "address",
          "name": "",
          "type": "address"
        }
      ],
      "stateMutability": "view",
      "type": "function",
      "constant": true
    },
    {
      "inputs": [
        {
          "internalType": "uint256",
          "name": "",
          "type": "uint256"
        }
      ],
      "name": "allDeposits",
      "outputs": [
        {
          "internalType": "address",
          "name": "depositor",
          "type": "address"
        },
        {
          "internalType": "uint256",
          "name": "amount",
          "type": "uint256"
        },
        {
          "internalType": "uint256",
          "name": "timestamp",
          "type": "uint256"
        }
      ],
      "stateMutability": "view",
      "type": "function",
      "constant": true
    },
    {
      "inputs": [
        {
          "internalType": "address",
          "name": "",
          "type": "address"
        }
      ],
      "name": "deposits",
      "outputs": [
        {
          "internalType": "uint256",
          "name": "",
          "type": "uint256"
        }
      ],
      "stateMutability": "view",
      "type": "function",
      "constant": true
    },
    {
      "inputs": [
        {
          "internalType": "uint256",
          "name": "",
          "type": "uint256"
        }
      ],
      "name": "topAmounts",
      "outputs": [
        {
          "internalType": "uint256",
          "name": "",
          "type": "uint256"
        }
      ],
      "stateMutability": "view",
      "type": "function",
      "constant": true
    },
    {
      "inputs": [
        {
          "internalType": "uint256",
          "name": "",
          "type": "uint256"
        }
      ],
      "name": "topDepositors",
      "outputs": [
        {
          "internalType": "address",
          "name": "",
          "type": "address"
        }
      ],
      "stateMutability": "view",
      "type": "function",
      "constant": true
    },
    {
      "stateMutability": "payable",
      "type": "receive",
      "payable": true
    },
    {
      "inputs": [
        {
          "internalType": "uint256",
          "name": "amount",
          "type": "uint256"
        }
      ],
      "name": "withdraw",
      "outputs": [],
      "stateMutability": "nonpayable",
      "type": "function"
    },
    {
      "inputs": [],
      "name": "getBalance",
      "outputs": [
        {
          "internalType": "uint256",
          "name": "",
          "type": "uint256"
        }
      ],
      "stateMutability": "view",
      "type": "function",
      "constant": true
    },
    {
      "inputs": [],
      "name": "getTopDepositors",
      "outputs": [
        {
          "internalType": "address[3]",
          "name": "",
          "type": "address[3]"
        },
        {
          "internalType": "uint256[3]",
          "name": "",
          "type": "uint256[3]"
        }
      ],
      "stateMutability": "view",
      "type": "function",
      "constant": true
    },
    {
      "inputs": [],
      "name": "getAllDeposits",
      "outputs": [
        {
          "components": [
            {
              "internalType": "address",
              "name": "depositor",
              "type": "address"
            },
            {
              "internalType": "uint256",
              "name": "amount",
              "type": "uint256"
            },
            {
              "internalType": "uint256",
              "name": "timestamp",
              "type": "uint256"
            }
          ],
          "internalType": "struct Bank.DepositInfo[]",
          "name": "",
          "type": "tuple[]"
        }
      ],
      "stateMutability": "view",
      "type": "function",
      "constant": true
    },
    {
      "inputs": [],
      "name": "getSortedDeposits",
      "outputs": [
        {
          "components": [
            {
              "internalType": "address",
              "name": "depositor",
              "type": "address"
            },
            {
              "internalType": "uint256",
              "name": "amount",
              "type": "uint256"
            }
          ],
          "internalType": "struct Bank.DepositRank[]",
          "name": "",
          "type": "tuple[]"
        }
      ],
      "stateMutability": "view",
      "type": "function",
      "constant": true
    }
  ],
  "bytecode": "0x60806040523480156200001157600080fd5b506040516200183338038062001833833981810160405281019062000037919062000095565b806000806101000a81548173ffffffffffffffffffffffffffffffffffffffff021916908373ffffffffffffffffffffffffffffffffffffffff160217905550506200010f565b6000815190506200008f81620000f5565b92915050565b600060208284031215620000a857600080fd5b6000620000b8848285016200007e565b91505092915050565b6000620000ce82620000d5565b9050919050565b600073ffffffffffffffffffffffffffffffffffffffff82169050919050565b6200010081620000c1565b81146200010c57600080fd5b50565b611714806200011f6000396000f3fe6080604052600436106100955760003560e01c806381454f711161005957806381454f71146102f1578063d3f3f5ea1461031d578063e77176c414610348578063f851a44014610387578063fc7e286d146103b2576101f3565b806312065fe0146101f85780632e1a7d4d14610223578063308610781461024c5780633b9b5f8e14610289578063586b255d146102c6576101f3565b366101f35734600160003373ffffffffffffffffffffffffffffffffffffffff1673ffffffffffffffffffffffffffffffffffffffff16815260200190815260200160002060008282546100e99190611548565b92505081905550600860405180606001604052803373ffffffffffffffffffffffffffffffffffffffff168152602001600160003373ffffffffffffffffffffffffffffffffffffffff1673ffffffffffffffffffffffffffffffffffffffff16815260200190815260200160002054815260200142815250908060018154018082558091505060019003906000526020600020906003020160009091909190915060008201518160000160006101000a81548173ffffffffffffffffffffffffffffffffffffffff021916908373ffffffffffffffffffffffffffffffffffffffff160217905550602082015181600101556040820151816002015550506101f1336103ef565b005b600080fd5b34801561020457600080fd5b5061020d6106e4565b60405161021a9190611450565b60405180910390f35b34801561022f57600080fd5b5061024a60048036038101906102459190611031565b6106ec565b005b34801561025857600080fd5b50610273600480360381019061026e9190611031565b610827565b6040516102809190611351565b60405180910390f35b34801561029557600080fd5b506102b060048036038101906102ab9190611031565b61085d565b6040516102bd9190611450565b60405180910390f35b3480156102d257600080fd5b506102db610878565b6040516102e891906113ee565b60405180910390f35b3480156102fd57600080fd5b50610306610d3b565b6040516103149291906113a3565b60405180910390f35b34801561032957600080fd5b50610332610e0b565b60405161033f91906113cc565b60405180910390f35b34801561035457600080fd5b5061036f600480360381019061036a9190611031565b610ed4565b60405161037e9392919061136c565b60405180910390f35b34801561039357600080fd5b5061039c610f2e565b6040516103a99190611351565b60405180910390f35b3480156103be57600080fd5b506103d960048036038101906103d49190611008565b610f52565b6040516103e69190611450565b60405180910390f35b6000600160008373ffffffffffffffffffffffffffffffffffffffff1673ffffffffffffffffffffffffffffffffffffffff16815260200190815260200160002054905060005b60038110156106df5760058160038110610479577f4e487b7100000000000000000000000000000000000000000000000000000000600052603260045260246000fd5b01548211156106cc576000600290505b8181111561060c5760056001826104a0919061159e565b600381106104d7577f4e487b7100000000000000000000000000000000000000000000000000000000600052603260045260246000fd5b015460058260038110610513577f4e487b7100000000000000000000000000000000000000000000000000000000600052603260045260246000fd5b01819055506002600182610527919061159e565b6003811061055e577f4e487b7100000000000000000000000000000000000000000000000000000000600052603260045260246000fd5b0160009054906101000a900473ffffffffffffffffffffffffffffffffffffffff16600282600381106105ba577f4e487b7100000000000000000000000000000000000000000000000000000000600052603260045260246000fd5b0160006101000a81548173ffffffffffffffffffffffffffffffffffffffff021916908373ffffffffffffffffffffffffffffffffffffffff16021790555080806106049061160e565b915050610489565b508160058260038110610648577f4e487b7100000000000000000000000000000000000000000000000000000000600052603260045260246000fd5b01819055508260028260038110610688577f4e487b7100000000000000000000000000000000000000000000000000000000600052603260045260246000fd5b0160006101000a81548173ffffffffffffffffffffffffffffffffffffffff021916908373ffffffffffffffffffffffffffffffffffffffff1602179055506106df565b80806106d790611638565b915050610436565b505050565b600047905090565b60008054906101000a900473ffffffffffffffffffffffffffffffffffffffff1673ffffffffffffffffffffffffffffffffffffffff163373ffffffffffffffffffffffffffffffffffffffff161461077a576040517f08c379a000000000000000000000000000000000000000000000000000000000815260040161077190611410565b60405180910390fd5b478111156107bd576040517f08c379a00000000000000000000000000000000000000000000000000000000081526004016107b490611430565b60405180910390fd5b60008054906101000a900473ffffffffffffffffffffffffffffffffffffffff1673ffffffffffffffffffffffffffffffffffffffff166108fc829081150290604051600060405180830381858888f19350505050158015610823573d6000803e3d6000fd5b5050565b6002816003811061083757600080fd5b016000915054906101000a900473ffffffffffffffffffffffffffffffffffffffff1681565b6005816003811061086d57600080fd5b016000915090505481565b60606000805b60088054905081101561096157600060016000600884815481106108cb577f4e487b7100000000000000000000000000000000000000000000000000000000600052603260045260246000fd5b906000526020600020906003020160000160009054906101000a900473ffffffffffffffffffffffffffffffffffffffff1673ffffffffffffffffffffffffffffffffffffffff1673ffffffffffffffffffffffffffffffffffffffff16815260200190815260200160002054111561094e5760018261094b9190611548565b91505b808061095990611638565b91505061087e565b5060008167ffffffffffffffff8111156109a4577f4e487b7100000000000000000000000000000000000000000000000000000000600052604160045260246000fd5b6040519080825280602002602001820160405280156109dd57816020015b6109ca610f6a565b8152602001906001900390816109c25790505b5090506000805b600880549050811015610b4157600060088281548110610a2d577f4e487b7100000000000000000000000000000000000000000000000000000000600052603260045260246000fd5b906000526020600020906003020160000160009054906101000a900473ffffffffffffffffffffffffffffffffffffffff1690506000600160008373ffffffffffffffffffffffffffffffffffffffff1673ffffffffffffffffffffffffffffffffffffffff1681526020019081526020016000205490506000811115610b2c5760405180604001604052808373ffffffffffffffffffffffffffffffffffffffff16815260200182815250858581518110610b12577f4e487b7100000000000000000000000000000000000000000000000000000000600052603260045260246000fd5b60200260200101819052508380610b2890611638565b9450505b50508080610b3990611638565b9150506109e4565b5060005b8251811015610d31576000600182610b5d9190611548565b90505b8351811015610d1d57838181518110610ba2577f4e487b7100000000000000000000000000000000000000000000000000000000600052603260045260246000fd5b602002602001015160200151848381518110610be7577f4e487b7100000000000000000000000000000000000000000000000000000000600052603260045260246000fd5b6020026020010151602001511015610d0a576000848381518110610c34577f4e487b7100000000000000000000000000000000000000000000000000000000600052603260045260246000fd5b60200260200101519050848281518110610c77577f4e487b7100000000000000000000000000000000000000000000000000000000600052603260045260246000fd5b6020026020010151858481518110610cb8577f4e487b7100000000000000000000000000000000000000000000000000000000600052603260045260246000fd5b602002602001018190525080858381518110610cfd577f4e487b7100000000000000000000000000000000000000000000000000000000600052603260045260246000fd5b6020026020010181905250505b8080610d1590611638565b915050610b60565b508080610d2990611638565b915050610b45565b5081935050505090565b610d43610f9a565b610d4b610fbc565b6002600581600380602002604051908101604052809291908260038015610dbd576020028201915b8160009054906101000a900473ffffffffffffffffffffffffffffffffffffffff1673ffffffffffffffffffffffffffffffffffffffff1681526020019060010190808311610d73575b5050505050915080600380602002604051908101604052809291908260038015610dfc576020028201915b815481526020019060010190808311610de8575b50505050509050915091509091565b60606008805480602002602001604051908101604052809291908181526020016000905b82821015610ecb57838290600052602060002090600302016040518060600160405290816000820160009054906101000a900473ffffffffffffffffffffffffffffffffffffffff1673ffffffffffffffffffffffffffffffffffffffff1673ffffffffffffffffffffffffffffffffffffffff1681526020016001820154815260200160028201548152505081526020019060010190610e2f565b50505050905090565b60088181548110610ee457600080fd5b90600052602060002090600302016000915090508060000160009054906101000a900473ffffffffffffffffffffffffffffffffffffffff16908060010154908060020154905083565b60008054906101000a900473ffffffffffffffffffffffffffffffffffffffff1681565b60016020528060005260406000206000915090505481565b6040518060400160405280600073ffffffffffffffffffffffffffffffffffffffff168152602001600081525090565b6040518060600160405280600390602082028036833780820191505090505090565b6040518060600160405280600390602082028036833780820191505090505090565b600081359050610fed816116b0565b92915050565b600081359050611002816116c7565b92915050565b60006020828403121561101a57600080fd5b600061102884828501610fde565b91505092915050565b60006020828403121561104357600080fd5b600061105184828501610ff3565b91505092915050565b600061106683836110ba565b60208301905092915050565b600061107e83836112c2565b60608301905092915050565b60006110968383611304565b60408301905092915050565b60006110ae8383611333565b60208301905092915050565b6110c3816115d2565b82525050565b6110d2816115d2565b82525050565b6110e18161149f565b6110eb81846114ff565b92506110f68261146b565b8060005b8381101561112757815161110e878261105a565b9650611119836114cb565b9250506001810190506110fa565b505050505050565b600061113a826114aa565b611144818561150a565b935061114f83611475565b8060005b838110156111805781516111678882611072565b9750611172836114d8565b925050600181019050611153565b5085935050505092915050565b6000611198826114b5565b6111a2818561151b565b93506111ad83611485565b8060005b838110156111de5781516111c5888261108a565b97506111d0836114e5565b9250506001810190506111b1565b5085935050505092915050565b6111f4816114c0565b6111fe818461152c565b925061120982611495565b8060005b8381101561123a57815161122187826110a2565b965061122c836114f2565b92505060018101905061120d565b505050505050565b600061124f601783611537565b91507f4f6e6c792061646d696e2063616e2077697468647261770000000000000000006000830152602082019050919050565b600061128f601483611537565b91507f496e73756666696369656e742062616c616e63650000000000000000000000006000830152602082019050919050565b6060820160008201516112d860008501826110ba565b5060208201516112eb6020850182611333565b5060408201516112fe6040850182611333565b50505050565b60408201600082015161131a60008501826110ba565b50602082015161132d6020850182611333565b50505050565b61133c81611604565b82525050565b61134b81611604565b82525050565b600060208201905061136660008301846110c9565b92915050565b600060608201905061138160008301866110c9565b61138e6020830185611342565b61139b6040830184611342565b949350505050565b600060c0820190506113b860008301856110d8565b6113c560608301846111eb565b9392505050565b600060208201905081810360008301526113e6818461112f565b905092915050565b60006020820190508181036000830152611408818461118d565b905092915050565b6000602082019050818103600083015261142981611242565b9050919050565b6000602082019050818103600083015261144981611282565b9050919050565b60006020820190506114656000830184611342565b92915050565b6000819050919050565b6000819050602082019050919050565b6000819050602082019050919050565b6000819050919050565b600060039050919050565b600081519050919050565b600081519050919050565b600060039050919050565b6000602082019050919050565b6000602082019050919050565b6000602082019050919050565b6000602082019050919050565b600081905092915050565b600082825260208201905092915050565b600082825260208201905092915050565b600081905092915050565b600082825260208201905092915050565b600061155382611604565b915061155e83611604565b9250827fffffffffffffffffffffffffffffffffffffffffffffffffffffffffffffffff0382111561159357611592611681565b5b828201905092915050565b60006115a982611604565b91506115b483611604565b9250828210156115c7576115c6611681565b5b828203905092915050565b60006115dd826115e4565b9050919050565b600073ffffffffffffffffffffffffffffffffffffffff82169050919050565b6000819050919050565b600061161982611604565b9150600082141561162d5761162c611681565b5b600182039050919050565b600061164382611604565b91507fffffffffffffffffffffffffffffffffffffffffffffffffffffffffffffffff82141561167657611675611681565b5b600182019050919050565b7f4e487b7100000000000000000000000000000000000000000000000000000000600052601160045260246000fd5b6116b9816115d2565b81146116c457600080fd5b50565b6116d081611604565b81146116db57600080fd5b5056fea26469706673582212206160a0c3f73b275269293936513e851aa29f7ed138e94c10ce384a1f1618dbb164736f6c63430008000033",
  "immutableReferences": {},
  "source": "// SPDX-License-Identifier: MIT\n\npragma solidity ^0.8.0;\n\ncontract Bank {\n  struct DepositInfo {\n    address depositor;\n    uint256 amount;\n    uint256 timestamp;\n  }\n\n  struct DepositRank {\n    address depositor;\n    uint256 amount;\n  }\n\n  address public admin;\n  // \n  mapping(address => uint256) public deposits;\n  // \n  address[3] public topDepositors;\n  uint256[3] public topAmounts;\n\n  DepositInfo[] public allDeposits;\n\n\n  constructor(address _admin) {\n    admin = _admin;\n  }\n  // \n  receive() external payable {\n    deposits[msg.sender] += msg.value;\n    allDeposits.push(DepositInfo(msg.sender, deposits[msg.sender], block.timestamp));\n    updateTopDepositors(msg.sender);\n  }\n\n    // \n  function updateTopDepositors(address depositor) private {\n      uint256 amount = deposits[depositor];\n      \n      for (uint i = 0; i < 3; i++) {\n          if (amount > topAmounts[i]) {\n              // \n              for (uint j = 2; j > i; j--) {\n                  topAmounts[j] = topAmounts[j-1];\n                  topDepositors[j] = topDepositors[j-1];\n              }\n              // \n              topAmounts[i] = amount;\n              topDepositors[i] = depositor;\n              break;\n          }\n      }\n  }\n  // \n  function withdraw(uint256 amount) external {\n    require(msg.sender == admin, \"Only admin can withdraw\");\n    require(amount <= address(this).balance, \"Insufficient balance\");\n    payable(admin).transfer(amount);\n  }\n  // \n  function getBalance() external view returns (uint256) {\n    return address(this).balance;\n  }\n\n  // \n  function getTopDepositors() external view returns (address[3] memory, uint256[3] memory) {\n    return (topDepositors, topAmounts);\n  }\n\n  // function getDeposits() external view returns (mapping memory) {\n  //   return deposits;\n  // }\n  // \n  function getAllDeposits() external view returns (DepositInfo[] memory) {\n    return allDeposits;\n  }\n\n  function getSortedDeposits() external view returns (DepositRank[] memory) {\n\n    // \n    uint256 count = 0;\n\n    for (uint i = 0; i<allDeposits.length; i++) {\n      if (deposits[allDeposits[i].depositor] > 0) {\n        count +=1;\n      }\n    }\n\n    // \n    DepositRank[] memory depositRanks = new DepositRank[](count);\n    uint256 index = 0;\n    // \n    for (uint i = 0; i < allDeposits.length; i++) {\n      address depositor = allDeposits[i].depositor;\n      uint256 amount = deposits[depositor];\n\n      if (amount > 0) {\n        depositRanks[index] = DepositRank(depositor, amount);\n        index++;\n      }\n    }\n\n    // \n    for(uint i = 0; i < depositRanks.length; i++) {\n      for (uint j = i+1; j < depositRanks.length; j++) {\n        if (depositRanks[i].amount < depositRanks[j].amount) {\n          DepositRank memory temp = depositRanks[i];\n          depositRanks[i] = depositRanks[j];\n          depositRanks[j] = temp;\n        }\n      }\n    }\n    return depositRanks;\n  }\n}",
  "sourcePath": "/Users/baixingxing/xingxbai/web3/my-solidity-project/contracts/Bank.sol",
  "compiler": {
    "name": "solc",
    "version": "0.8.0+commit.c7dfd78e.Emscripten.clang"
  },
  "schemaVersion": "3.4.16",
  "updatedAt": "2025-01-22T04:04:25.069Z",
  "networkType": "ethereum",
  "devdoc": {
    "kind": "dev",
    "methods": {},
    "version": 1
  },
  "userdoc": {
    "kind": "user",
    "methods": {},
    "version": 1
  }
}