{
  "contractName": "Bank",
  "abi": [
    {
      "inputs": [
        {
          "internalType": "address",
          "name": "_admin",
          "type": "address"
        }
      ],
      "stateMutability": "nonpayable",
      "type": "constructor"
    },
    {
      "inputs": [],
      "name": "admin",
      "outputs": [
        {
          "internalType": "address",
          "name": "",
          "type": "address"
        }
      ],
      "stateMutability": "view",
      "type": "function",
      "constant": true
    },
    {
      "inputs": [
        {
          "internalType": "uint256",
          "name": "",
          "type": "uint256"
        }
      ],
      "name": "allDeposits",
      "outputs": [
        {
          "internalType": "address",
          "name": "depositor",
          "type": "address"
        },
        {
          "internalType": "uint256",
          "name": "amount",
          "type": "uint256"
        },
        {
          "internalType": "uint256",
          "name": "timestamp",
          "type": "uint256"
        }
      ],
      "stateMutability": "view",
      "type": "function",
      "constant": true
    },
    {
      "inputs": [
        {
          "internalType": "address",
          "name": "",
          "type": "address"
        }
      ],
      "name": "deposits",
      "outputs": [
        {
          "internalType": "uint256",
          "name": "",
          "type": "uint256"
        }
      ],
      "stateMutability": "view",
      "type": "function",
      "constant": true
    },
    {
      "inputs": [
        {
          "internalType": "uint256",
          "name": "",
          "type": "uint256"
        }
      ],
      "name": "topAmounts",
      "outputs": [
        {
          "internalType": "uint256",
          "name": "",
          "type": "uint256"
        }
      ],
      "stateMutability": "view",
      "type": "function",
      "constant": true
    },
    {
      "inputs": [
        {
          "internalType": "uint256",
          "name": "",
          "type": "uint256"
        }
      ],
      "name": "topDepositors",
      "outputs": [
        {
          "internalType": "address",
          "name": "",
          "type": "address"
        }
      ],
      "stateMutability": "view",
      "type": "function",
      "constant": true
    },
    {
      "stateMutability": "payable",
      "type": "receive",
      "payable": true
    },
    {
      "inputs": [
        {
          "internalType": "uint256",
          "name": "amount",
          "type": "uint256"
        }
      ],
      "name": "withdraw",
      "outputs": [],
      "stateMutability": "nonpayable",
      "type": "function"
    },
    {
      "inputs": [],
      "name": "getBalance",
      "outputs": [
        {
          "internalType": "uint256",
          "name": "",
          "type": "uint256"
        }
      ],
      "stateMutability": "view",
      "type": "function",
      "constant": true
    },
    {
      "inputs": [],
      "name": "getTopDepositors",
      "outputs": [
        {
          "internalType": "address[3]",
          "name": "",
          "type": "address[3]"
        },
        {
          "internalType": "uint256[3]",
          "name": "",
          "type": "uint256[3]"
        }
      ],
      "stateMutability": "view",
      "type": "function",
      "constant": true
    },
    {
      "inputs": [],
      "name": "getAllDeposits",
      "outputs": [
        {
          "components": [
            {
              "internalType": "address",
              "name": "depositor",
              "type": "address"
            },
            {
              "internalType": "uint256",
              "name": "amount",
              "type": "uint256"
            },
            {
              "internalType": "uint256",
              "name": "timestamp",
              "type": "uint256"
            }
          ],
          "internalType": "struct Bank.DepositInfo[]",
          "name": "",
          "type": "tuple[]"
        }
      ],
      "stateMutability": "view",
      "type": "function",
      "constant": true
    },
    {
      "inputs": [],
      "name": "getSortedDeposits",
      "outputs": [
        {
          "components": [
            {
              "internalType": "address",
              "name": "depositor",
              "type": "address"
            },
            {
              "internalType": "uint256",
              "name": "amount",
              "type": "uint256"
            }
          ],
          "internalType": "struct Bank.DepositRank[]",
          "name": "",
          "type": "tuple[]"
        }
      ],
      "stateMutability": "view",
      "type": "function",
      "constant": true
    }
  ],
  "bytecode": "0x60806040523480156200001157600080fd5b50604051620018c7380380620018c7833981810160405281019062000037919062000095565b806000806101000a81548173ffffffffffffffffffffffffffffffffffffffff021916908373ffffffffffffffffffffffffffffffffffffffff160217905550506200010f565b6000815190506200008f81620000f5565b92915050565b600060208284031215620000a857600080fd5b6000620000b8848285016200007e565b91505092915050565b6000620000ce82620000d5565b9050919050565b600073ffffffffffffffffffffffffffffffffffffffff82169050919050565b6200010081620000c1565b81146200010c57600080fd5b50565b6117a8806200011f6000396000f3fe6080604052600436106100955760003560e01c806381454f711161005957806381454f71146102f1578063d3f3f5ea1461031d578063e77176c414610348578063f851a44014610387578063fc7e286d146103b2576101f3565b806312065fe0146101f85780632e1a7d4d14610223578063308610781461024c5780633b9b5f8e14610289578063586b255d146102c6576101f3565b366101f35734600160003373ffffffffffffffffffffffffffffffffffffffff1673ffffffffffffffffffffffffffffffffffffffff16815260200190815260200160002060008282546100e991906115dc565b92505081905550600860405180606001604052803373ffffffffffffffffffffffffffffffffffffffff168152602001600160003373ffffffffffffffffffffffffffffffffffffffff1673ffffffffffffffffffffffffffffffffffffffff16815260200190815260200160002054815260200142815250908060018154018082558091505060019003906000526020600020906003020160009091909190915060008201518160000160006101000a81548173ffffffffffffffffffffffffffffffffffffffff021916908373ffffffffffffffffffffffffffffffffffffffff160217905550602082015181600101556040820151816002015550506101f1336103ef565b005b600080fd5b34801561020457600080fd5b5061020d6106e4565b60405161021a91906114e4565b60405180910390f35b34801561022f57600080fd5b5061024a60048036038101906102459190611065565b6106ec565b005b34801561025857600080fd5b50610273600480360381019061026e9190611065565b61085b565b60405161028091906113c5565b60405180910390f35b34801561029557600080fd5b506102b060048036038101906102ab9190611065565b610891565b6040516102bd91906114e4565b60405180910390f35b3480156102d257600080fd5b506102db6108ac565b6040516102e89190611462565b60405180910390f35b3480156102fd57600080fd5b50610306610d6f565b604051610314929190611417565b60405180910390f35b34801561032957600080fd5b50610332610e3f565b60405161033f9190611440565b60405180910390f35b34801561035457600080fd5b5061036f600480360381019061036a9190611065565b610f08565b60405161037e939291906113e0565b60405180910390f35b34801561039357600080fd5b5061039c610f62565b6040516103a991906113c5565b60405180910390f35b3480156103be57600080fd5b506103d960048036038101906103d4919061103c565b610f86565b6040516103e691906114e4565b60405180910390f35b6000600160008373ffffffffffffffffffffffffffffffffffffffff1673ffffffffffffffffffffffffffffffffffffffff16815260200190815260200160002054905060005b60038110156106df5760058160038110610479577f4e487b7100000000000000000000000000000000000000000000000000000000600052603260045260246000fd5b01548211156106cc576000600290505b8181111561060c5760056001826104a09190611632565b600381106104d7577f4e487b7100000000000000000000000000000000000000000000000000000000600052603260045260246000fd5b015460058260038110610513577f4e487b7100000000000000000000000000000000000000000000000000000000600052603260045260246000fd5b018190555060026001826105279190611632565b6003811061055e577f4e487b7100000000000000000000000000000000000000000000000000000000600052603260045260246000fd5b0160009054906101000a900473ffffffffffffffffffffffffffffffffffffffff16600282600381106105ba577f4e487b7100000000000000000000000000000000000000000000000000000000600052603260045260246000fd5b0160006101000a81548173ffffffffffffffffffffffffffffffffffffffff021916908373ffffffffffffffffffffffffffffffffffffffff1602179055508080610604906116a2565b915050610489565b508160058260038110610648577f4e487b7100000000000000000000000000000000000000000000000000000000600052603260045260246000fd5b01819055508260028260038110610688577f4e487b7100000000000000000000000000000000000000000000000000000000600052603260045260246000fd5b0160006101000a81548173ffffffffffffffffffffffffffffffffffffffff021916908373ffffffffffffffffffffffffffffffffffffffff1602179055506106df565b80806106d7906116cc565b915050610436565b505050565b600047905090565b60008054906101000a900473ffffffffffffffffffffffffffffffffffffffff1673ffffffffffffffffffffffffffffffffffffffff163373ffffffffffffffffffffffffffffffffffffffff161461077a576040517f08c379a000000000000000000000000000000000000000000000000000000000815260040161077190611484565b60405180910390fd5b478111156107bd576040517f08c379a00000000000000000000000000000000000000000000000000000000081526004016107b4906114c4565b60405180910390fd5b60008060009054906101000a900473ffffffffffffffffffffffffffffffffffffffff1673ffffffffffffffffffffffffffffffffffffffff166108fc839081150290604051600060405180830381858888f19350505050905080610857576040517f08c379a000000000000000000000000000000000000000000000000000000000815260040161084e906114a4565b60405180910390fd5b5050565b6002816003811061086b57600080fd5b016000915054906101000a900473ffffffffffffffffffffffffffffffffffffffff1681565b600581600381106108a157600080fd5b016000915090505481565b60606000805b60088054905081101561099557600060016000600884815481106108ff577f4e487b7100000000000000000000000000000000000000000000000000000000600052603260045260246000fd5b906000526020600020906003020160000160009054906101000a900473ffffffffffffffffffffffffffffffffffffffff1673ffffffffffffffffffffffffffffffffffffffff1673ffffffffffffffffffffffffffffffffffffffff1681526020019081526020016000205411156109825760018261097f91906115dc565b91505b808061098d906116cc565b9150506108b2565b5060008167ffffffffffffffff8111156109d8577f4e487b7100000000000000000000000000000000000000000000000000000000600052604160045260246000fd5b604051908082528060200260200182016040528015610a1157816020015b6109fe610f9e565b8152602001906001900390816109f65790505b5090506000805b600880549050811015610b7557600060088281548110610a61577f4e487b7100000000000000000000000000000000000000000000000000000000600052603260045260246000fd5b906000526020600020906003020160000160009054906101000a900473ffffffffffffffffffffffffffffffffffffffff1690506000600160008373ffffffffffffffffffffffffffffffffffffffff1673ffffffffffffffffffffffffffffffffffffffff1681526020019081526020016000205490506000811115610b605760405180604001604052808373ffffffffffffffffffffffffffffffffffffffff16815260200182815250858581518110610b46577f4e487b7100000000000000000000000000000000000000000000000000000000600052603260045260246000fd5b60200260200101819052508380610b5c906116cc565b9450505b50508080610b6d906116cc565b915050610a18565b5060005b8251811015610d65576000600182610b9191906115dc565b90505b8351811015610d5157838181518110610bd6577f4e487b7100000000000000000000000000000000000000000000000000000000600052603260045260246000fd5b602002602001015160200151848381518110610c1b577f4e487b7100000000000000000000000000000000000000000000000000000000600052603260045260246000fd5b6020026020010151602001511015610d3e576000848381518110610c68577f4e487b7100000000000000000000000000000000000000000000000000000000600052603260045260246000fd5b60200260200101519050848281518110610cab577f4e487b7100000000000000000000000000000000000000000000000000000000600052603260045260246000fd5b6020026020010151858481518110610cec577f4e487b7100000000000000000000000000000000000000000000000000000000600052603260045260246000fd5b602002602001018190525080858381518110610d31577f4e487b7100000000000000000000000000000000000000000000000000000000600052603260045260246000fd5b6020026020010181905250505b8080610d49906116cc565b915050610b94565b508080610d5d906116cc565b915050610b79565b5081935050505090565b610d77610fce565b610d7f610ff0565b6002600581600380602002604051908101604052809291908260038015610df1576020028201915b8160009054906101000a900473ffffffffffffffffffffffffffffffffffffffff1673ffffffffffffffffffffffffffffffffffffffff1681526020019060010190808311610da7575b5050505050915080600380602002604051908101604052809291908260038015610e30576020028201915b815481526020019060010190808311610e1c575b50505050509050915091509091565b60606008805480602002602001604051908101604052809291908181526020016000905b82821015610eff57838290600052602060002090600302016040518060600160405290816000820160009054906101000a900473ffffffffffffffffffffffffffffffffffffffff1673ffffffffffffffffffffffffffffffffffffffff1673ffffffffffffffffffffffffffffffffffffffff1681526020016001820154815260200160028201548152505081526020019060010190610e63565b50505050905090565b60088181548110610f1857600080fd5b90600052602060002090600302016000915090508060000160009054906101000a900473ffffffffffffffffffffffffffffffffffffffff16908060010154908060020154905083565b60008054906101000a900473ffffffffffffffffffffffffffffffffffffffff1681565b60016020528060005260406000206000915090505481565b6040518060400160405280600073ffffffffffffffffffffffffffffffffffffffff168152602001600081525090565b6040518060600160405280600390602082028036833780820191505090505090565b6040518060600160405280600390602082028036833780820191505090505090565b60008135905061102181611744565b92915050565b6000813590506110368161175b565b92915050565b60006020828403121561104e57600080fd5b600061105c84828501611012565b91505092915050565b60006020828403121561107757600080fd5b600061108584828501611027565b91505092915050565b600061109a83836110ee565b60208301905092915050565b60006110b28383611336565b60608301905092915050565b60006110ca8383611378565b60408301905092915050565b60006110e283836113a7565b60208301905092915050565b6110f781611666565b82525050565b61110681611666565b82525050565b61111581611533565b61111f8184611593565b925061112a826114ff565b8060005b8381101561115b578151611142878261108e565b965061114d8361155f565b92505060018101905061112e565b505050505050565b600061116e8261153e565b611178818561159e565b935061118383611509565b8060005b838110156111b457815161119b88826110a6565b97506111a68361156c565b925050600181019050611187565b5085935050505092915050565b60006111cc82611549565b6111d681856115af565b93506111e183611519565b8060005b838110156112125781516111f988826110be565b975061120483611579565b9250506001810190506111e5565b5085935050505092915050565b61122881611554565b61123281846115c0565b925061123d82611529565b8060005b8381101561126e57815161125587826110d6565b965061126083611586565b925050600181019050611241565b505050505050565b60006112836017836115cb565b91507f4f6e6c792061646d696e2063616e2077697468647261770000000000000000006000830152602082019050919050565b60006112c36014836115cb565b91507f4661696c656420746f2073656e642045746865720000000000000000000000006000830152602082019050919050565b60006113036014836115cb565b91507f496e73756666696369656e742062616c616e63650000000000000000000000006000830152602082019050919050565b60608201600082015161134c60008501826110ee565b50602082015161135f60208501826113a7565b50604082015161137260408501826113a7565b50505050565b60408201600082015161138e60008501826110ee565b5060208201516113a160208501826113a7565b50505050565b6113b081611698565b82525050565b6113bf81611698565b82525050565b60006020820190506113da60008301846110fd565b92915050565b60006060820190506113f560008301866110fd565b61140260208301856113b6565b61140f60408301846113b6565b949350505050565b600060c08201905061142c600083018561110c565b611439606083018461121f565b9392505050565b6000602082019050818103600083015261145a8184611163565b905092915050565b6000602082019050818103600083015261147c81846111c1565b905092915050565b6000602082019050818103600083015261149d81611276565b9050919050565b600060208201905081810360008301526114bd816112b6565b9050919050565b600060208201905081810360008301526114dd816112f6565b9050919050565b60006020820190506114f960008301846113b6565b92915050565b6000819050919050565b6000819050602082019050919050565b6000819050602082019050919050565b6000819050919050565b600060039050919050565b600081519050919050565b600081519050919050565b600060039050919050565b6000602082019050919050565b6000602082019050919050565b6000602082019050919050565b6000602082019050919050565b600081905092915050565b600082825260208201905092915050565b600082825260208201905092915050565b600081905092915050565b600082825260208201905092915050565b60006115e782611698565b91506115f283611698565b9250827fffffffffffffffffffffffffffffffffffffffffffffffffffffffffffffffff0382111561162757611626611715565b5b828201905092915050565b600061163d82611698565b915061164883611698565b92508282101561165b5761165a611715565b5b828203905092915050565b600061167182611678565b9050919050565b600073ffffffffffffffffffffffffffffffffffffffff82169050919050565b6000819050919050565b60006116ad82611698565b915060008214156116c1576116c0611715565b5b600182039050919050565b60006116d782611698565b91507fffffffffffffffffffffffffffffffffffffffffffffffffffffffffffffffff82141561170a57611709611715565b5b600182019050919050565b7f4e487b7100000000000000000000000000000000000000000000000000000000600052601160045260246000fd5b61174d81611666565b811461175857600080fd5b50565b61176481611698565b811461176f57600080fd5b5056fea2646970667358221220bb1a401c22bb91585ef6a8b4637f3dd4edeb5af82fac296e67f2ce8550f014c464736f6c63430008000033",
  "immutableReferences": {},
  "source": "// SPDX-License-Identifier: MIT\n\npragma solidity ^0.8.0;\n\ncontract Bank {\n  struct DepositInfo {\n    address depositor;\n    uint256 amount;\n    uint256 timestamp;\n  }\n\n  struct DepositRank {\n    address depositor;\n    uint256 amount;\n  }\n\n  address public admin;\n  // \n  mapping(address => uint256) public deposits;\n  // \n  address[3] public topDepositors;\n  uint256[3] public topAmounts;\n\n  DepositInfo[] public allDeposits;\n\n\n  constructor(address _admin) {\n    admin = _admin;\n  }\n  // \n  receive() external payable virtual {\n    deposits[msg.sender] += msg.value;\n    allDeposits.push(DepositInfo(msg.sender, deposits[msg.sender], block.timestamp));\n    updateTopDepositors(msg.sender);\n  }\n\n    // \n  function updateTopDepositors(address depositor) private {\n      uint256 amount = deposits[depositor];\n      \n      for (uint i = 0; i < 3; i++) {\n          if (amount > topAmounts[i]) {\n              // \n              for (uint j = 2; j > i; j--) {\n                  topAmounts[j] = topAmounts[j-1];\n                  topDepositors[j] = topDepositors[j-1];\n              }\n              // \n              topAmounts[i] = amount;\n              topDepositors[i] = depositor;\n              break;\n          }\n      }\n  }\n  // \n  function withdraw(uint256 amount) external virtual {\n    require(msg.sender == admin, \"Only admin can withdraw\");\n    require(amount <= address(this).balance, \"Insufficient balance\");\n    // payable(admin).transfer(amount);\n    // send \n    bool success = payable(admin).send(amount);\n    if (!success) {\n      revert(\"Failed to send Ether\");\n    }\n  }\n  // \n  function getBalance() external view returns (uint256) {\n    return address(this).balance;\n  }\n\n  // \n  function getTopDepositors() external view returns (address[3] memory, uint256[3] memory) {\n    return (topDepositors, topAmounts);\n  }\n\n  // \n  function getAllDeposits() external view returns (DepositInfo[] memory) {\n    return allDeposits;\n  }\n\n  function getSortedDeposits() external view returns (DepositRank[] memory) {\n\n    // \n    uint256 count = 0;\n\n    for (uint i = 0; i<allDeposits.length; i++) {\n      if (deposits[allDeposits[i].depositor] > 0) {\n        count +=1;\n      }\n    }\n\n    // \n    DepositRank[] memory depositRanks = new DepositRank[](count);\n    uint256 index = 0;\n    // \n    for (uint i = 0; i < allDeposits.length; i++) {\n      address depositor = allDeposits[i].depositor;\n      uint256 amount = deposits[depositor];\n\n      if (amount > 0) {\n        depositRanks[index] = DepositRank(depositor, amount);\n        index++;\n      }\n    }\n\n    // \n    for(uint i = 0; i < depositRanks.length; i++) {\n      for (uint j = i+1; j < depositRanks.length; j++) {\n        if (depositRanks[i].amount < depositRanks[j].amount) {\n          DepositRank memory temp = depositRanks[i];\n          depositRanks[i] = depositRanks[j];\n          depositRanks[j] = temp;\n        }\n      }\n    }\n    return depositRanks;\n  }\n}",
  "sourcePath": "/Users/baixingxing/xingxbai/web3/my-solidity-project/contracts/Bank.sol",
  "compiler": {
    "name": "solc",
    "version": "0.8.0+commit.c7dfd78e.Emscripten.clang"
  },
  "schemaVersion": "3.4.16",
  "updatedAt": "2025-02-14T02:32:56.275Z",
  "networkType": "ethereum",
  "devdoc": {
    "kind": "dev",
    "methods": {},
    "version": 1
  },
  "userdoc": {
    "kind": "user",
    "methods": {},
    "version": 1
  }
}