{
  "contractName": "NoahToken",
  "abi": [
    {
      "inputs": [
        {
          "internalType": "string",
          "name": "_initName",
          "type": "string"
        },
        {
          "internalType": "string",
          "name": "_initSymbol",
          "type": "string"
        },
        {
          "internalType": "uint8",
          "name": "_initDecimals",
          "type": "uint8"
        },
        {
          "internalType": "uint256",
          "name": "_initTotalSupply",
          "type": "uint256"
        }
      ],
      "stateMutability": "nonpayable",
      "type": "constructor"
    },
    {
      "anonymous": false,
      "inputs": [
        {
          "indexed": true,
          "internalType": "address",
          "name": "_owner",
          "type": "address"
        },
        {
          "indexed": true,
          "internalType": "address",
          "name": "_spender",
          "type": "address"
        },
        {
          "indexed": false,
          "internalType": "uint256",
          "name": "_value",
          "type": "uint256"
        }
      ],
      "name": "Approval",
      "type": "event"
    },
    {
      "anonymous": false,
      "inputs": [
        {
          "indexed": true,
          "internalType": "address",
          "name": "_from",
          "type": "address"
        },
        {
          "indexed": true,
          "internalType": "address",
          "name": "_to",
          "type": "address"
        },
        {
          "indexed": false,
          "internalType": "uint256",
          "name": "_value",
          "type": "uint256"
        }
      ],
      "name": "Transfer",
      "type": "event"
    },
    {
      "inputs": [],
      "name": "owner",
      "outputs": [
        {
          "internalType": "address",
          "name": "",
          "type": "address"
        }
      ],
      "stateMutability": "view",
      "type": "function",
      "constant": true
    },
    {
      "inputs": [],
      "name": "name",
      "outputs": [
        {
          "internalType": "string",
          "name": "",
          "type": "string"
        }
      ],
      "stateMutability": "view",
      "type": "function",
      "constant": true
    },
    {
      "inputs": [],
      "name": "symbol",
      "outputs": [
        {
          "internalType": "string",
          "name": "",
          "type": "string"
        }
      ],
      "stateMutability": "view",
      "type": "function",
      "constant": true
    },
    {
      "inputs": [],
      "name": "decimals",
      "outputs": [
        {
          "internalType": "uint8",
          "name": "",
          "type": "uint8"
        }
      ],
      "stateMutability": "view",
      "type": "function",
      "constant": true
    },
    {
      "inputs": [],
      "name": "totalSupply",
      "outputs": [
        {
          "internalType": "uint256",
          "name": "",
          "type": "uint256"
        }
      ],
      "stateMutability": "view",
      "type": "function",
      "constant": true
    },
    {
      "inputs": [
        {
          "internalType": "address",
          "name": "_owner",
          "type": "address"
        }
      ],
      "name": "balanceOf",
      "outputs": [
        {
          "internalType": "uint256",
          "name": "balance",
          "type": "uint256"
        }
      ],
      "stateMutability": "view",
      "type": "function",
      "constant": true
    },
    {
      "inputs": [
        {
          "internalType": "address",
          "name": "_to",
          "type": "address"
        },
        {
          "internalType": "uint256",
          "name": "_value",
          "type": "uint256"
        }
      ],
      "name": "transfer",
      "outputs": [
        {
          "internalType": "bool",
          "name": "success",
          "type": "bool"
        }
      ],
      "stateMutability": "nonpayable",
      "type": "function"
    },
    {
      "inputs": [
        {
          "internalType": "address",
          "name": "_from",
          "type": "address"
        },
        {
          "internalType": "address",
          "name": "_to",
          "type": "address"
        },
        {
          "internalType": "uint256",
          "name": "_value",
          "type": "uint256"
        }
      ],
      "name": "transferFrom",
      "outputs": [
        {
          "internalType": "bool",
          "name": "success",
          "type": "bool"
        }
      ],
      "stateMutability": "nonpayable",
      "type": "function"
    },
    {
      "inputs": [
        {
          "internalType": "address",
          "name": "_spender",
          "type": "address"
        },
        {
          "internalType": "uint256",
          "name": "_value",
          "type": "uint256"
        }
      ],
      "name": "approve",
      "outputs": [
        {
          "internalType": "bool",
          "name": "success",
          "type": "bool"
        }
      ],
      "stateMutability": "nonpayable",
      "type": "function"
    },
    {
      "inputs": [
        {
          "internalType": "address",
          "name": "_owner",
          "type": "address"
        },
        {
          "internalType": "address",
          "name": "_spender",
          "type": "address"
        }
      ],
      "name": "allowance",
      "outputs": [
        {
          "internalType": "uint256",
          "name": "remaining",
          "type": "uint256"
        }
      ],
      "stateMutability": "view",
      "type": "function",
      "constant": true
    }
  ],
  "bytecode": "0x60806040523480156200001157600080fd5b50604051620013ad380380620013ad83398181016040528101906200003791906200028c565b83600090805190602001906200004f9291906200013c565b508260019080519060200190620000689291906200013c565b5081600260006101000a81548160ff021916908360ff1602179055508060038190555033600660006101000a81548173ffffffffffffffffffffffffffffffffffffffff021916908373ffffffffffffffffffffffffffffffffffffffff1602179055508060046000600660009054906101000a900473ffffffffffffffffffffffffffffffffffffffff1673ffffffffffffffffffffffffffffffffffffffff1673ffffffffffffffffffffffffffffffffffffffff1681526020019081526020016000208190555050505050620004a6565b8280546200014a90620003de565b90600052602060002090601f0160209004810192826200016e5760008555620001ba565b82601f106200018957805160ff1916838001178555620001ba565b82800160010185558215620001ba579182015b82811115620001b95782518255916020019190600101906200019c565b5b509050620001c99190620001cd565b5090565b5b80821115620001e8576000816000905550600101620001ce565b5090565b600062000203620001fd846200035e565b6200032a565b9050828152602081018484840111156200021c57600080fd5b62000229848285620003a8565b509392505050565b600082601f8301126200024357600080fd5b815162000255848260208601620001ec565b91505092915050565b6000815190506200026f8162000472565b92915050565b60008151905062000286816200048c565b92915050565b60008060008060808587031215620002a357600080fd5b600085015167ffffffffffffffff811115620002be57600080fd5b620002cc8782880162000231565b945050602085015167ffffffffffffffff811115620002ea57600080fd5b620002f88782880162000231565b93505060406200030b8782880162000275565b92505060606200031e878288016200025e565b91505092959194509250565b6000604051905081810181811067ffffffffffffffff8211171562000354576200035362000443565b5b8060405250919050565b600067ffffffffffffffff8211156200037c576200037b62000443565b5b601f19601f8301169050602081019050919050565b6000819050919050565b600060ff82169050919050565b60005b83811015620003c8578082015181840152602081019050620003ab565b83811115620003d8576000848401525b50505050565b60006002820490506001821680620003f757607f821691505b602082108114156200040e576200040d62000414565b5b50919050565b7f4e487b7100000000000000000000000000000000000000000000000000000000600052602260045260246000fd5b7f4e487b7100000000000000000000000000000000000000000000000000000000600052604160045260246000fd5b6200047d8162000391565b81146200048957600080fd5b50565b62000497816200039b565b8114620004a357600080fd5b50565b610ef780620004b66000396000f3fe608060405234801561001057600080fd5b506004361061009e5760003560e01c806370a082311161006657806370a082311461015d5780638da5cb5b1461018d57806395d89b41146101ab578063a9059cbb146101c9578063dd62ed3e146101f95761009e565b806306fdde03146100a3578063095ea7b3146100c157806318160ddd146100f157806323b872dd1461010f578063313ce5671461013f575b600080fd5b6100ab610229565b6040516100b89190610c2c565b60405180910390f35b6100db60048036038101906100d69190610ac5565b6102bb565b6040516100e89190610c11565b60405180910390f35b6100f96103ad565b6040516101069190610c8e565b60405180910390f35b61012960048036038101906101249190610a76565b6103b7565b6040516101369190610c11565b60405180910390f35b6101476106a9565b6040516101549190610ca9565b60405180910390f35b61017760048036038101906101729190610a11565b6106c0565b6040516101849190610c8e565b60405180910390f35b610195610709565b6040516101a29190610bf6565b60405180910390f35b6101b361072f565b6040516101c09190610c2c565b60405180910390f35b6101e360048036038101906101de9190610ac5565b6107c1565b6040516101f09190610c11565b60405180910390f35b610213600480360381019061020e9190610a3a565b610960565b6040516102209190610c8e565b60405180910390f35b60606000805461023890610df2565b80601f016020809104026020016040519081016040528092919081815260200182805461026490610df2565b80156102b15780601f10610286576101008083540402835291602001916102b1565b820191906000526020600020905b81548152906001019060200180831161029457829003601f168201915b5050505050905090565b600081600560003373ffffffffffffffffffffffffffffffffffffffff1673ffffffffffffffffffffffffffffffffffffffff16815260200190815260200160002060008573ffffffffffffffffffffffffffffffffffffffff1673ffffffffffffffffffffffffffffffffffffffff168152602001908152602001600020819055508273ffffffffffffffffffffffffffffffffffffffff163373ffffffffffffffffffffffffffffffffffffffff167f8c5be1e5ebec7d5bd14f71427d1e84f3dd0314c0f7b2291e5b200ac8c7c3b9258460405161039b9190610c8e565b60405180910390a36001905092915050565b6000600354905090565b600081600460008673ffffffffffffffffffffffffffffffffffffffff1673ffffffffffffffffffffffffffffffffffffffff16815260200190815260200160002054101561043b576040517f08c379a000000000000000000000000000000000000000000000000000000000815260040161043290610c6e565b60405180910390fd5b81600560008673ffffffffffffffffffffffffffffffffffffffff1673ffffffffffffffffffffffffffffffffffffffff16815260200190815260200160002060003373ffffffffffffffffffffffffffffffffffffffff1673ffffffffffffffffffffffffffffffffffffffff1681526020019081526020016000205410156104fa576040517f08c379a00000000000000000000000000000000000000000000000000000000081526004016104f190610c4e565b60405180910390fd5b81600460008673ffffffffffffffffffffffffffffffffffffffff1673ffffffffffffffffffffffffffffffffffffffff16815260200190815260200160002060008282546105499190610d36565b9250508190555081600460008573ffffffffffffffffffffffffffffffffffffffff1673ffffffffffffffffffffffffffffffffffffffff168152602001908152602001600020600082825461059f9190610ce0565b9250508190555081600560008673ffffffffffffffffffffffffffffffffffffffff1673ffffffffffffffffffffffffffffffffffffffff16815260200190815260200160002060003373ffffffffffffffffffffffffffffffffffffffff1673ffffffffffffffffffffffffffffffffffffffff16815260200190815260200160002060008282546106329190610d36565b925050819055508273ffffffffffffffffffffffffffffffffffffffff168473ffffffffffffffffffffffffffffffffffffffff167fddf252ad1be2c89b69c2b068fc378daa952ba7f163c4a11628f55a4df523b3ef846040516106969190610c8e565b60405180910390a3600190509392505050565b6000600260009054906101000a900460ff16905090565b6000600460008373ffffffffffffffffffffffffffffffffffffffff1673ffffffffffffffffffffffffffffffffffffffff168152602001908152602001600020549050919050565b600660009054906101000a900473ffffffffffffffffffffffffffffffffffffffff1681565b60606001805461073e90610df2565b80601f016020809104026020016040519081016040528092919081815260200182805461076a90610df2565b80156107b75780601f1061078c576101008083540402835291602001916107b7565b820191906000526020600020905b81548152906001019060200180831161079a57829003601f168201915b5050505050905090565b600081600460003373ffffffffffffffffffffffffffffffffffffffff1673ffffffffffffffffffffffffffffffffffffffff168152602001908152602001600020541015610845576040517f08c379a000000000000000000000000000000000000000000000000000000000815260040161083c90610c6e565b60405180910390fd5b81600460003373ffffffffffffffffffffffffffffffffffffffff1673ffffffffffffffffffffffffffffffffffffffff16815260200190815260200160002060008282546108949190610d36565b9250508190555081600460008573ffffffffffffffffffffffffffffffffffffffff1673ffffffffffffffffffffffffffffffffffffffff16815260200190815260200160002060008282546108ea9190610ce0565b925050819055508273ffffffffffffffffffffffffffffffffffffffff163373ffffffffffffffffffffffffffffffffffffffff167fddf252ad1be2c89b69c2b068fc378daa952ba7f163c4a11628f55a4df523b3ef8460405161094e9190610c8e565b60405180910390a36001905092915050565b6000600560008473ffffffffffffffffffffffffffffffffffffffff1673ffffffffffffffffffffffffffffffffffffffff16815260200190815260200160002060008373ffffffffffffffffffffffffffffffffffffffff1673ffffffffffffffffffffffffffffffffffffffff16815260200190815260200160002054905092915050565b6000813590506109f681610e93565b92915050565b600081359050610a0b81610eaa565b92915050565b600060208284031215610a2357600080fd5b6000610a31848285016109e7565b91505092915050565b60008060408385031215610a4d57600080fd5b6000610a5b858286016109e7565b9250506020610a6c858286016109e7565b9150509250929050565b600080600060608486031215610a8b57600080fd5b6000610a99868287016109e7565b9350506020610aaa868287016109e7565b9250506040610abb868287016109fc565b9150509250925092565b60008060408385031215610ad857600080fd5b6000610ae6858286016109e7565b9250506020610af7858286016109fc565b9150509250929050565b610b0a81610d6a565b82525050565b610b1981610d7c565b82525050565b6000610b2a82610cc4565b610b348185610ccf565b9350610b44818560208601610dbf565b610b4d81610e82565b840191505092915050565b6000610b65601683610ccf565b91507f496e73756666696369656e7420616c6c6f77616e6365000000000000000000006000830152602082019050919050565b6000610ba5601483610ccf565b91507f496e73756666696369656e742062616c616e63650000000000000000000000006000830152602082019050919050565b610be181610da8565b82525050565b610bf081610db2565b82525050565b6000602082019050610c0b6000830184610b01565b92915050565b6000602082019050610c266000830184610b10565b92915050565b60006020820190508181036000830152610c468184610b1f565b905092915050565b60006020820190508181036000830152610c6781610b58565b9050919050565b60006020820190508181036000830152610c8781610b98565b9050919050565b6000602082019050610ca36000830184610bd8565b92915050565b6000602082019050610cbe6000830184610be7565b92915050565b600081519050919050565b600082825260208201905092915050565b6000610ceb82610da8565b9150610cf683610da8565b9250827fffffffffffffffffffffffffffffffffffffffffffffffffffffffffffffffff03821115610d2b57610d2a610e24565b5b828201905092915050565b6000610d4182610da8565b9150610d4c83610da8565b925082821015610d5f57610d5e610e24565b5b828203905092915050565b6000610d7582610d88565b9050919050565b60008115159050919050565b600073ffffffffffffffffffffffffffffffffffffffff82169050919050565b6000819050919050565b600060ff82169050919050565b60005b83811015610ddd578082015181840152602081019050610dc2565b83811115610dec576000848401525b50505050565b60006002820490506001821680610e0a57607f821691505b60208210811415610e1e57610e1d610e53565b5b50919050565b7f4e487b7100000000000000000000000000000000000000000000000000000000600052601160045260246000fd5b7f4e487b7100000000000000000000000000000000000000000000000000000000600052602260045260246000fd5b6000601f19601f8301169050919050565b610e9c81610d6a565b8114610ea757600080fd5b50565b610eb381610da8565b8114610ebe57600080fd5b5056fea2646970667358221220028e60cbc22f497f35deb42915fc787af72464412c18d614291922d964a0980e64736f6c63430008000033",
  "immutableReferences": {},
  "source": "// SPDX-License-Identifier: MIT\n\npragma solidity ^0.8.0;\n\nimport \"./IERC20.sol\";\n\ncontract NoahToken is IERC20 {\n    string private _name; // \n    string private _symbol; // \n    uint8 private _decimals; // \n    uint256 private _totalSupply; // \n    mapping(address => uint256) private _balances; // \n    mapping(address => mapping(address => uint256)) private _allowance; // \n    address public owner; // \n\n    constructor(\n        string memory _initName,\n        string memory _initSymbol,\n        uint8 _initDecimals,\n        uint256 _initTotalSupply\n    ) {\n        // \n        _name = _initName;\n        _symbol = _initSymbol;\n        _decimals = _initDecimals;\n        _totalSupply = _initTotalSupply;\n        owner = msg.sender;\n        // \n        _balances[owner] = _initTotalSupply;\n    }\n\n    function name() external view override returns (string memory) {\n        return _name;\n    }\n\n    function symbol() external view override returns (string memory) {\n        return _symbol;\n    }\n\n    function decimals() external view override returns (uint8) {\n        return _decimals;\n    }\n\n    function totalSupply() external view override returns (uint256) {\n        return _totalSupply;\n    }\n\n    function balanceOf(address _owner)\n        external\n        view\n        override\n        returns (uint256 balance)\n    {\n        return _balances[_owner];\n    }\n\n    function transfer(address _to, uint256 _value)\n        external\n        override\n        returns (bool success)\n    {\n        // \n        require(_balances[msg.sender] >= _value, \"Insufficient balance\");\n        // \n        _balances[msg.sender] -= _value;\n        // \n        _balances[_to] += _value;\n        // \n        emit Transfer(msg.sender, _to, _value);\n        return true;\n    }\n\n    function transferFrom(\n        address _from,\n        address _to,\n        uint256 _value\n    ) external override returns (bool success) {\n        // \n        require(_balances[_from] >= _value, \"Insufficient balance\");\n        // \n        require(\n            _allowance[_from][msg.sender] >= _value,\n            \"Insufficient allowance\"\n        );\n        // \n        _balances[_from] -= _value;\n        // \n        _balances[_to] += _value;\n        // \n        _allowance[_from][msg.sender] -= _value;\n        // \n        emit Transfer(_from, _to, _value);\n        return true;\n    }\n\n    function approve(address _spender, uint256 _value)\n        external\n        override\n        returns (bool success)\n    {\n        // \n        _allowance[msg.sender][_spender] = _value;\n        // \n        emit Approval(msg.sender, _spender, _value);\n        return true;\n    }\n\n    function allowance(address _owner, address _spender)\n        external\n        view\n        override\n        returns (uint256 remaining)\n    {\n        return _allowance[_owner][_spender];\n    }\n}\n",
  "sourcePath": "/Users/baixingxing/xingxbai/web3/my-solidity-project/contracts/NoahToken.sol",
  "compiler": {
    "name": "solc",
    "version": "0.8.0+commit.c7dfd78e.Emscripten.clang"
  },
  "schemaVersion": "3.4.16",
  "updatedAt": "2025-01-10T03:57:54.794Z",
  "networkType": "ethereum",
  "devdoc": {
    "kind": "dev",
    "methods": {},
    "version": 1
  },
  "userdoc": {
    "kind": "user",
    "methods": {},
    "version": 1
  }
}